{
  "_format": "hh-sol-artifact-1",
  "contractName": "WavePortal",
  "sourceName": "contracts/WavePortal.sol",
  "abi": [
    {
      "inputs": [],
      "stateMutability": "payable",
      "type": "constructor"
    },
    {
      "anonymous": false,
      "inputs": [
        {
          "indexed": true,
          "internalType": "address",
          "name": "from",
          "type": "address"
        },
        {
          "indexed": false,
          "internalType": "uint256",
          "name": "timestamp",
          "type": "uint256"
        },
        {
          "indexed": false,
          "internalType": "string",
          "name": "message",
          "type": "string"
        }
      ],
      "name": "NewWave",
      "type": "event"
    },
    {
      "inputs": [],
      "name": "getAllWaves",
      "outputs": [
        {
          "components": [
            {
              "internalType": "string",
              "name": "message",
              "type": "string"
            },
            {
              "internalType": "address",
              "name": "waver",
              "type": "address"
            },
            {
              "internalType": "uint256",
              "name": "timestamp",
              "type": "uint256"
            }
          ],
          "internalType": "struct WavePortal.Wave[]",
          "name": "",
          "type": "tuple[]"
        }
      ],
      "stateMutability": "view",
      "type": "function"
    },
    {
      "inputs": [],
      "name": "getTotalWaves",
      "outputs": [
        {
          "internalType": "uint256",
          "name": "",
          "type": "uint256"
        }
      ],
      "stateMutability": "view",
      "type": "function"
    },
    {
      "inputs": [
        {
          "internalType": "address",
          "name": "",
          "type": "address"
        }
      ],
      "name": "lastWavedAt",
      "outputs": [
        {
          "internalType": "uint256",
          "name": "",
          "type": "uint256"
        }
      ],
      "stateMutability": "view",
      "type": "function"
    },
    {
      "inputs": [
        {
          "internalType": "string",
          "name": "_message",
          "type": "string"
        }
      ],
      "name": "wave",
      "outputs": [],
      "stateMutability": "nonpayable",
      "type": "function"
    }
  ],
  "bytecode": "0x60806040526200004f6040518060400160405280601981526020017f57652068617665206265656e20636f6e737472756374656421000000000000008152506200005560201b620006381760201c565b620001e9565b620000f5816040516024016200006c919062000162565b6040516020818303038152906040527f41304fac000000000000000000000000000000000000000000000000000000007bffffffffffffffffffffffffffffffffffffffffffffffffffffffff19166020820180517bffffffffffffffffffffffffffffffffffffffffffffffffffffffff8381831617835250505050620000f860201b60201c565b50565b60008151905060006a636f6e736f6c652e6c6f679050602083016000808483855afa5050505050565b60006200012e8262000186565b6200013a818562000191565b93506200014c818560208601620001a2565b6200015781620001d8565b840191505092915050565b600060208201905081810360008301526200017e818462000121565b905092915050565b600081519050919050565b600082825260208201905092915050565b60005b83811015620001c2578082015181840152602081019050620001a5565b83811115620001d2576000848401525b50505050565b6000601f19601f8301169050919050565b61125180620001f96000396000f3fe608060405234801561001057600080fd5b506004361061004c5760003560e01c8063449d46c0146100515780639a2cdc081461006d578063a42a46631461008b578063bd43a908146100bb575b600080fd5b61006b60048036038101906100669190610ab6565b6100d9565b005b6100756104c6565b6040516100829190610f13565b60405180910390f35b6100a560048036038101906100a09190610a8d565b6104cf565b6040516100b29190610f13565b60405180910390f35b6100c36104e7565b6040516100d09190610d93565b60405180910390f35b42601e600360003373ffffffffffffffffffffffffffffffffffffffff1673ffffffffffffffffffffffffffffffffffffffff168152602001908152602001600020546101269190611000565b10610166576040517f08c379a000000000000000000000000000000000000000000000000000000000815260040161015d90610ed3565b60405180910390fd5b42600360003373ffffffffffffffffffffffffffffffffffffffff1673ffffffffffffffffffffffffffffffffffffffff1681526020019081526020016000208190555060016000808282546101bc9190611000565b925050819055506102036040518060400160405280601681526020017f257320776176656420772f206d6573736167652025730000000000000000000081525033836106d1565b6102426040518060400160405280600f81526020017f476f74206d6573736167653a202573000000000000000000000000000000000081525082610770565b600260405180606001604052808381526020013373ffffffffffffffffffffffffffffffffffffffff16815260200142815250908060018154018082558091505060019003906000526020600020906003020160009091909190915060008201518160000190805190602001906102ba92919061096d565b5060208201518160010160006101000a81548173ffffffffffffffffffffffffffffffffffffffff021916908373ffffffffffffffffffffffffffffffffffffffff1602179055506040820151816002015550506000606460015442446103219190611000565b61032b9190611000565b6103359190611106565b90506103766040518060400160405280601681526020017f52616e646f6d20232067656e6572617465643a202573000000000000000000008152508261080c565b8060018190555060328110156104c2576103c56040518060400160405280600781526020017f257320776f6e2100000000000000000000000000000000000000000000000000815250336108a8565b60006509184e72a000905047811115610413576040517f08c379a000000000000000000000000000000000000000000000000000000000815260040161040a90610eb3565b60405180910390fd5b60003373ffffffffffffffffffffffffffffffffffffffff168260405161043990610d7e565b60006040518083038185875af1925050503d8060008114610476576040519150601f19603f3d011682016040523d82523d6000602084013e61047b565b606091505b50509050806104bf576040517f08c379a00000000000000000000000000000000000000000000000000000000081526004016104b690610ef3565b60405180910390fd5b50505b5050565b60008054905090565b60036020528060005260406000206000915090505481565b60606002805480602002602001604051908101604052809291908181526020016000905b8282101561062f578382906000526020600020906003020160405180606001604052908160008201805461053e906110d4565b80601f016020809104026020016040519081016040528092919081815260200182805461056a906110d4565b80156105b75780601f1061058c576101008083540402835291602001916105b7565b820191906000526020600020905b81548152906001019060200180831161059a57829003601f168201915b505050505081526020016001820160009054906101000a900473ffffffffffffffffffffffffffffffffffffffff1673ffffffffffffffffffffffffffffffffffffffff1673ffffffffffffffffffffffffffffffffffffffff1681526020016002820154815250508152602001906001019061050b565b50505050905090565b6106ce8160405160240161064c9190610db5565b6040516020818303038152906040527f41304fac000000000000000000000000000000000000000000000000000000007bffffffffffffffffffffffffffffffffffffffffffffffffffffffff19166020820180517bffffffffffffffffffffffffffffffffffffffffffffffffffffffff8381831617835250505050610944565b50565b61076b8383836040516024016106e993929190610e07565b6040516020818303038152906040527fe0e9ad4f000000000000000000000000000000000000000000000000000000007bffffffffffffffffffffffffffffffffffffffffffffffffffffffff19166020820180517bffffffffffffffffffffffffffffffffffffffffffffffffffffffff8381831617835250505050610944565b505050565b6108088282604051602401610786929190610e4c565b6040516020818303038152906040527f4b5c4277000000000000000000000000000000000000000000000000000000007bffffffffffffffffffffffffffffffffffffffffffffffffffffffff19166020820180517bffffffffffffffffffffffffffffffffffffffffffffffffffffffff8381831617835250505050610944565b5050565b6108a48282604051602401610822929190610e83565b6040516020818303038152906040527f9710a9d0000000000000000000000000000000000000000000000000000000007bffffffffffffffffffffffffffffffffffffffffffffffffffffffff19166020820180517bffffffffffffffffffffffffffffffffffffffffffffffffffffffff8381831617835250505050610944565b5050565b61094082826040516024016108be929190610dd7565b6040516020818303038152906040527f319af333000000000000000000000000000000000000000000000000000000007bffffffffffffffffffffffffffffffffffffffffffffffffffffffff19166020820180517bffffffffffffffffffffffffffffffffffffffffffffffffffffffff8381831617835250505050610944565b5050565b60008151905060006a636f6e736f6c652e6c6f679050602083016000808483855afa5050505050565b828054610979906110d4565b90600052602060002090601f01602090048101928261099b57600085556109e2565b82601f106109b457805160ff19168380011785556109e2565b828001600101855582156109e2579182015b828111156109e15782518255916020019190600101906109c6565b5b5090506109ef91906109f3565b5090565b5b80821115610a0c5760008160009055506001016109f4565b5090565b6000610a23610a1e84610f5f565b610f2e565b905082815260208101848484011115610a3b57600080fd5b610a46848285611092565b509392505050565b600081359050610a5d81611204565b92915050565b600082601f830112610a7457600080fd5b8135610a84848260208601610a10565b91505092915050565b600060208284031215610a9f57600080fd5b6000610aad84828501610a4e565b91505092915050565b600060208284031215610ac857600080fd5b600082013567ffffffffffffffff811115610ae257600080fd5b610aee84828501610a63565b91505092915050565b6000610b038383610d10565b905092915050565b610b1481611056565b82525050565b610b2381611056565b82525050565b6000610b3482610f9f565b610b3e8185610fc2565b935083602082028501610b5085610f8f565b8060005b85811015610b8c5784840389528151610b6d8582610af7565b9450610b7883610fb5565b925060208a01995050600181019050610b54565b50829750879550505050505092915050565b6000610ba982610faa565b610bb38185610fde565b9350610bc38185602086016110a1565b610bcc816111f3565b840191505092915050565b6000610be282610faa565b610bec8185610fef565b9350610bfc8185602086016110a1565b610c05816111f3565b840191505092915050565b6000610c1d602183610fef565b91507f436f6e747261637420646f65736e27742068617665206d6f6e6579204148484860008301527f48000000000000000000000000000000000000000000000000000000000000006020830152604082019050919050565b6000610c83601e83610fef565b91507f57616974203330207365636f6e647320666f72206e65787420776176652e00006000830152602082019050919050565b6000610cc3601483610fef565b91507f4661696c656420746f2073656e64206d6f6e65790000000000000000000000006000830152602082019050919050565b6000610d03600083610fd3565b9150600082019050919050565b60006060830160008301518482036000860152610d2d8282610b9e565b9150506020830151610d426020860182610b0b565b506040830151610d556040860182610d60565b508091505092915050565b610d6981611088565b82525050565b610d7881611088565b82525050565b6000610d8982610cf6565b9150819050919050565b60006020820190508181036000830152610dad8184610b29565b905092915050565b60006020820190508181036000830152610dcf8184610bd7565b905092915050565b60006040820190508181036000830152610df18185610bd7565b9050610e006020830184610b1a565b9392505050565b60006060820190508181036000830152610e218186610bd7565b9050610e306020830185610b1a565b8181036040830152610e428184610bd7565b9050949350505050565b60006040820190508181036000830152610e668185610bd7565b90508181036020830152610e7a8184610bd7565b90509392505050565b60006040820190508181036000830152610e9d8185610bd7565b9050610eac6020830184610d6f565b9392505050565b60006020820190508181036000830152610ecc81610c10565b9050919050565b60006020820190508181036000830152610eec81610c76565b9050919050565b60006020820190508181036000830152610f0c81610cb6565b9050919050565b6000602082019050610f286000830184610d6f565b92915050565b6000604051905081810181811067ffffffffffffffff82111715610f5557610f546111c4565b5b8060405250919050565b600067ffffffffffffffff821115610f7a57610f796111c4565b5b601f19601f8301169050602081019050919050565b6000819050602082019050919050565b600081519050919050565b600081519050919050565b6000602082019050919050565b600082825260208201905092915050565b600081905092915050565b600082825260208201905092915050565b600082825260208201905092915050565b600061100b82611088565b915061101683611088565b9250827fffffffffffffffffffffffffffffffffffffffffffffffffffffffffffffffff0382111561104b5761104a611137565b5b828201905092915050565b600061106182611068565b9050919050565b600073ffffffffffffffffffffffffffffffffffffffff82169050919050565b6000819050919050565b82818337600083830152505050565b60005b838110156110bf5780820151818401526020810190506110a4565b838111156110ce576000848401525b50505050565b600060028204905060018216806110ec57607f821691505b60208210811415611100576110ff611195565b5b50919050565b600061111182611088565b915061111c83611088565b92508261112c5761112b611166565b5b828206905092915050565b7f4e487b7100000000000000000000000000000000000000000000000000000000600052601160045260246000fd5b7f4e487b7100000000000000000000000000000000000000000000000000000000600052601260045260246000fd5b7f4e487b7100000000000000000000000000000000000000000000000000000000600052602260045260246000fd5b7f4e487b7100000000000000000000000000000000000000000000000000000000600052604160045260246000fd5b6000601f19601f8301169050919050565b61120d81611056565b811461121857600080fd5b5056fea2646970667358221220c9e78dca99e3ce23a702b8dc7825da621c941c9f06e8aae6455e13724b1c1baf64736f6c63430008000033",
  "linkReferences": {},
  "deployedLinkReferences": {}
}